:020000040000fa
:10000000f8ff0320910e0000771a0000971b0000f4
:100010003b1e0000132000007120000000000000c3
:100020000000000000000000000000003719000080
:10003000771c00000000000037190000371900008d
:100040003719000037190000371900003719000070
:100050003719000037190000371900003719000060
:10006000371900003719000037190000b9180000cf
:100070003719000037190000371900003719000040
:100080003719000037190000371900003719000030
:100090003719000037190000371900003719000020
:1000a000371900003719000037190000011a000045
:1000b000371900003719000037190000012000002f
:1000c00037190000371900003719000037190000f0
:1000d00037190000371900003719000037190000e0
:1000e0003719000037190000000000000000000070
:1000f0000000000037190000371900003719000010
:1001000037190000371900003719000037190000af
:10011000371900003719000037190000371900009f
:10012000371900003719000037190000371900008f
:10013000371900003719000037190000371900007f
:10014000371900003719000037190000371900006f
:1001500037190000371900000000000000000000ff
:10016000000000000000000000000000000000008f
:1001700000000000000000003719000037190000df
:10018000371900003719000037190000371900002f
:10019000000000003719000037190000371900006f
:1001a000371900003719000037190000371900000f
:1001b00037190000371900003719000037190000ff
:1001c00037190000371900003719000037190000ef
:1001d00037190000371900003719000037190000df
:1001e00037190000371900003719000037190000cf
:1001f00037190000371900003719000037190000bf
:10020000371900000000000000000000371900004e
:10021000371900003719000037190000371900009e
:10022000371900003719000037190000371900008e
:10023000371900003719000037190000371900007e
:10024000371900003719000037190000371900006e
:10025000371900003719000037190000371900005e
:020000040000fa
:10026000f8b500bff8bc08bc9e467047f115000009
:10027000f8b500bff8bc08bc9e467047cd1500001d
:020000040000fa
:08028000100300000100000062
:020000040000fa
:100288002de9f041aeb006461546059100270599bf
:100298000b78002b00f0fa8000244ff0ff33cde9f3
:1002a80009430eab0c9380230b940d930b5d0bb19c
:1002b800252b26d134b12246304601f0c5fb059bdb
:1002c80023440593059b1a78252a40f0d78003f12b
:1002d8000108cdf81480059803782b2b1ad025d85f
:1002e800202b1bd0232b1dd02a2b27d001f025f93a
:1002f8000b90059b1a78303a092a2ed801330593ba
:10030800f7e70134d2e7099b43f001030130099371
:100318000590e0e7099b43f00403f7e7099b43f0e6
:100328000803f3e7099b43f01003efe72d2bead00e
:10033800302bd9d1099b43f00203e7e72b681a1d3c
:100348001b682a600130002b05900b9305da099a87
:100358005b4282f0010209920b93099bda0744bfc2
:1003680023f002030993059b1a782e2a0dd1002247
:10037800581c0a9205905a782a2a25d102330593e7
:100388002b681a1d1b682a600a9305a801f0b6f9a4
:10039800059b0390187801f0d4fd6928039979d05a
:1003a80032dc632800f0cb8019dc252800f0d980e6
:1003b800612853d000234ff0ff32cdf81480099301
:1003c8000b930a920093d4e001f0b7f80a90059bca
:1003d8001a78303a092ad8d801330593f7e7642800
:1003e80058d06728e6dc2a4606a801f077fa0028e4
:1003f80000f0a180059b5a1c05921b7806aa09a942
:10040800304601f029fe38e0702873d015dc6e28dc
:1004180000f08c806f28cdd12b46002206a800f072
:1004280091fc002800f08780059b06aa013309a9e2
:100438003046059301f00efe1fe075283ad0782863
:1004480048d07328b6d1802975d1059b2a68013315
:100458000593131d2b60126800237de02a4606a829
:1004680001f03cfa002866d0059b5a1c05921b78bf
:1004780006aa09a9304601f0effd04443c44a7420e
:100488007add3e4b4f221a604ff0ff3738462eb0c8
:10049800bde8f0812b46012206a800f053fc002895
:1004a80049d0059b06aa013309a93046059301f0f6
:1004b800d1fde2e72b46002206a800f043fc002805
:1004c80039d0059b06aa013309a93046059301f0e6
:1004d800c1fdd2e72b46002206a800f033fc50b33a
:1004e800059b5a1c05921b7806aa09a9304601f0fb
:1004f800b3fdc2e72b460022f02106a800f022fc3b
:10050800c8b1059b01330593dde9062313430bd1dd
:100518001b4801f00dfc099b009319490b9b0246ef
:10052800304600f07bfda8e77823dde72b463a1933
:1005380006a800f0b3fd059b013305939ee78029cb
:10054800f9d1059b013305932b681a1d1b682a6096
:100558008df8183006aa012309a9304600f0d6fe06
:100568008be78029e7d1059b01330593099b00930d
:100578000b9b04490122d3e7274688e6d4010020d3
:08058800701b0000761b00004f
:020000040000fa
:100590002de9f04f099f154604468e461e46002b56
:1005a00040f0cc808a42b2fa82fc4cd9bcf1000ff8
:1005b0000bd0ccf1200801fa0cfe20fa08f802fa60
:1005c0000cf548ea0e0e00fa0cf44fea15491ffa32
:1005d00085f8befbf9fa210c09fb1ae30afb08fbbc
:1005e00041ea03439b452ad9eb180af1ff3004d2b4
:1005f0009b4502d9aaf102002b44a3eb0b03a4b242
:10060000b3fbf9f209fb123302fb08f844ea034496
:10061000a04516d92c1902f1ff3303d2a04501d908
:10062000931e2c44a4eb080443ea004027b124faab
:100630000cf400233c607b603146bde8f08f5046ef
:10064000dbe71346eee702b9ffdebcf1000f2ed167
:100650008b1a01264fea154eaab2b3fbfef8210c05
:100660000efb183308fb02f941ea0343994561d9af
:10067000eb1808f1ff3004d2994502d9a8f1020025
:100680002b44a3eb0903a4b2b3fbfef10efb113321
:100690004a4344ea0344a2424ed92c1901f1ff33e4
:1006a00003d2a24201d98b1e2c44a41abce7ccf180
:1006b000200e02fa0cf521fa0ef901fa0cf320fad9
:1006c0000efe4eea03034fea154800fa0cf4b9fb9c
:1006d000f8f11ffa85fe08fb1192180c01fb0ef6cb
:1006e00040ea0242964221d9aa1801f1ff3003d212
:1006f000964201d9881e2a44921b9bb2b2fbf8f99c
:1007000008fb192209fb0efe43ea02439e450fd95e
:10071000eb1809f1ff3604d29e4502d9a9f1020671
:100720002b44a3eb0e0346ea004693e70846e3e7b3
:100730004e46f6e74046a4e70b46b6e78b4206d99d
:10074000002f7ed00026c7e90001304674e7b3fad7
:1007500083fcbcf1000f0fd18b4201d3824209d838
:10076000841a61eb030e0120002f6dd0c7e9004e03
:10077000002661e76046f7e7ccf1200e03fa0cf3a0
:1007800022fa0ef521fa0ef41d4301fa0cf320fab9
:100790000ef10b434fea154a00fa0cf6b4fbfaf9d6
:1007a0001ffa85f80afb19401c0c09fb08f144ea02
:1007b0000044a14202fa0cf23fd92c1909f1ff3092
:1007c00004d2a14202d9a9f102002c44641a9bb2be
:1007d000b4fbfaf90afb194409fb08f843ea04419f
:1007e00088452cd9691809f1ff3304d2884502d90c
:1007f000a9f10203294443ea0040a1eb0801a0fb50
:1008000002894945c2464c4602d306d1464504d228
:10081000b8eb020a69eb05040138afb1b6eb0a0385
:1008200061eb040606fa0efe23fa0cf34eea03030c
:1008300026fa0cf6c7e900369ae74846c6e74b4663
:0c084000d9e73e463846f7e63e46f5e6ae
:020000040000fa
:10084c002de980489bb06422002101a801f0cafa6e
:10085c00002001f056f800224249104601f0e8fa57
:10086c00002241490f2000f07dff00213f4801f09c
:10087c00b5fb3f4c3f4d0fcd0fc40fcd0fc495e8ca
:10088c00070003c4227001f021faa4f12808002605
:10089c00394ddff8fc90dff8dcb043e026703e7099
:1008ac004ff48043caf81c30404601f03ffa03462f
:1008bc00324a4146304600f001f92b7833b923789f
:1008cc00002bfad03b78002bf7d0e7e72e7099f885
:1008dc00003063bb012389f800300a2001f064fa70
:1008ec00304601f057fa264c99f8002002eb8202b0
:1008fc0004eb8202234901a801f0aaf901a801f036
:10090c0015fa03461d4a01a9304600f0d7f899f8ac
:10091c00002002eb820204eb82020bf154014046f0
:10092c0001f096f9184c194fdff868a0c7e7012bb6
:10093c0009d0022b0ed0032bd2d189f800600520f0
:10094c0001f032facce7022389f80030142001f0d0
:10095c002bfac5e7032389f80030282001f024fa8c
:10096c00bee700bf651d0000591f0000511d0000af
:10097c00c000002020110000da01002028040043f0
:10098c00c01300004c110000db010020dd01002031
:08099c00dc0100200080004195
:020000040000fa
:1009a400002800f0878070b505460468002c00f02c
:1009b4008380424b002908bf1946b1eb041f3dd385
:1009c40000260a4633462005210b00f02fffc0f510
:1009d400803033463a4a116821f002011160114611
:1009e400ca69002afcd180b2354a90816a68022a19
:1009f4004ed03348026822f0706222f4604242ea28
:100a0400433242f0807202604268ab68e9680b438b
:100a140022f4015222f0070213436a68134343602d
:100a2400274ad369002bfcd1254a136843f00203fb
:100a34001360d369002bfcd101203ee0b1ebc40f5d
:100a440009d30a460023e004610b00f0effec0f571
:100a540080300223bee704eb44038b4215d8002206
:100a6400201942eb0203001943eb0204230443ea76
:100a74001043020410461c460a460023214600f097
:100a8400d5fec0f580300423a4e700231846a1e76f
:100a94000b490a6822f0706222f4604242ea43324f
:100aa4000a604a68ab68e868034322f047021343cc
:100ab4004b60b5e700207047002070bd00879303aa
:040ac40000040043e7
:020000040000fa
:100ac80070b40401364d25442d7b04f1824404f5ad
:100ad800204494f84e4014f0030f02d1edb2002ddb
:100ae80057d1040104f1824505f52045032685f810
:100af8004e602b4d254401262e732a4d2c5b14f491
:100b0800806f31d0194405eb001461600101254c58
:100b1800615a11f4006f2cd01a4404eb00118a605a
:100b2800204902018c18895a9bb2c1f301210b415b
:100b38009bb2638002f1824303f520431a6c42f0b2
:100b480002021a641a6c12f4fe4f24d193f846304c
:100b580013f0400f22d114490c69012202fa00f364
:100b680023430b61104617e00e4c04eb0014616040
:100b7800cce70d49498811f4404f04d1094901ebec
:100b880000118a60cce71168064a02eb00129160f6
:100b9800c6e7002000e0012070bc70470120fbe799
:0c0ba800a00100209001002000a00041ee
:020000040000fa
:100bb400324b00221a7403f50063314a9a621a46d2
:100bc400536813f0100ffbd12e4b4222c3f884203c
:100bd4001a46d2f8843013f0400ffad02a4b002280
:100be4009a6377225a631a46d36b13f0040ffbd12e
:100bf400254b022283f830201a46d36b13f0020fe0
:100c0400fbd1214a136c03f00303032bfad11f4bce
:100c140001225a711a46d37813f0010ffbd0194bf5
:100c24001b4a1a621a46536813f0040ffbd1154b82
:100c3400184a5a621a46536813f0080ffbd1114b35
:100c44004122c3f890201a46d2f8903013f0400f96
:100c5400fad00c4b4122c3f80c211a46d2f80c31bd
:100c640013f0400ffad0094b6ff07f421a6140f243
:100c7400ff725a6102221a62704700bf00140040da
:100c840006013000001c0040001000400008004035
:080c9400070101000701020045
:020000040000fa
:100c9c00e001002004000000010000000000000042
:100cac00740100201c00000000000000da0100208c
:100cbc000300000000000000c000002064000000e1
:100ccc0000000000dd010020010000000100000018
:100cdc000100000090010020300000000000000026
:100cec0000000020c000000000000000d80100201f
:100cfc000200000000000000c001002010000000f5
:100d0c000000000024010020500000000000000042
:100d1c00d00100200800000000000000e4010020c9
:100d2c0004000000010000000000000000000000b2
:100d3c0000000000666666666666666666666666df
:020000040000fa
:100d4c00882910b536d012dc812943d003dc8029e8
:100d5c0040d0002010bd82290ed08429f9d1196809
:100d6c0002b30a1d1a60b1f90020d3171ee0a029a6
:100d7c002bd00bdc9029ecd11968073121f007013d
:100d8c0001f108021a60d1e900230fe0c02901d05b
:100d9c00f029ded11a68111d196013680360002355
:100dac00436005e00a1d1a600a880023c0e900238d
:100dbc000120cfe7196822b10a1d1a6091f90020b1
:100dcc00d3e70a1d1a600a78efe71a68111d19603b
:100ddc001268cae719681ab10a1d1a600a68c4e7d2
:0c0dec000c1d1c600b68c0e90032e1e740
:020000040000fa
:100df80070b483b002ac04e90c0011f0030f14d1f5
:100e0800890802251f4a00235380019b93609df89f
:100e180000309b0003f00c032b4343f48073538092
:100e280059b30024174a012614e011f0010f16d116
:100e380049080125e6e7012d0cbf30f8143050f8b9
:100e480024305360137b13f0010ffbd01673013469
:100e58008c4212d2002deed1035d5360f2e7094aad
:100e680000255580019b93609df800309b0003f09e
:100e78000c0343f480735380d3e7024b986803b0a4
:080e880070bc704700a000419e
:020000040000fa
:100e900008b5194b9847194b9847eff3108172b674
:100ea000174ad2f8883043f47003c2f88830bff391
:100eb0004f8fbff36f8f01b962b6124a936823f068
:100ec000010393601346da6812f0010ffbd10d4b5a
:100ed00024225a6001229a6000f0e8fa0a4b23f0bb
:100ee0007f03074a9360094b9847094b9847094b82
:100ef0009847fff7abfcfee773200000732000006b
:100f000000ed00e000600041000000006112000000
:080f10007320000073200000b3
:020000040000fa
:100f18001f4a137843f001031370536813f0010f4d
:100f2800fbd11b490b7843f010030b700022ca61f8
:100f38004ff010430b624ff400430b634a630b619d
:100f4800144b10221a819a821a849a851a87a3f858
:100f58004420a3f85020a3f85c20a3f86820a3f845
:100f68007420a3f88020a3f88c20a3f89820a3f875
:100f7800a420a3f8b0200f22a3f8bc200b7843f0dc
:100f880002030b700a46536813f0020ffbd1704737
:080f98000028004000000020c9
:020000040000fa
:100fa00010b582b000230193030103f1824303f5de
:100fb000204393f84e30dbb20193019b13f0020ff4
:100fc0000dd0010101f1824202f52042022382f894
:100fd0004e30134b0b4400221a73012400e002240c
:100fe000019b13f0010f0cd0010101f1824202f5c7
:100ff0002042012382f84e30094b0b4400221a7321
:101000000224074b03eb00135b6833b1044a02eb85
:10101000001399685b682046984702b010bd00bf76
:04102000a00100200b
:020000040000fa
:101024002de9ff471d460c9b13f0010906468a462d
:10103400144601d195420bd822465146304600f061
:1010440005fda54204d82546284604b0bde8f0872e
:101054002f1b102f3a464ff0200128bf102268465c
:10106400b84600f0c3feb8f10f0f11d83b096ff07a
:101074000f0202fb03726946304600f0e7fcb9f147
:10108400000fe1d122465146304600f0dffcdbe799
:1010940010226946304600f0d9fca8f11008e2e7b6
:020000040000fa
:1010a400842910b523d00cdc812903d0822913d0e4
:1010b40080290bd119680c1d1c600b6803601a6031
:1010c40013e0902921d003dc882917d0002010bd1b
:1010d400a029efd0c029ece719680c1d1c600b682f
:1010e4000360d1171046c3e900010120efe7196836
:1010f4000c1d1c600b6803601a80f6e719680c1d50
:101104001c600b6803601a70efe719680c1d1c6003
:0c11140009680160d317c1e90023e6e779
:020000040000fa
:10112000546f67676c696e67204c4544206174207a
:10113000353030206d696c6c697365636f6e6473f4
:101140002072617465200d0a000000004c454420a7
:10115000546f67676c696e6720726174652069738c
:10116000206368616e67656420746f2025730d0ac3
:1011700000000000546f67676c696e67204c45443f
:101180002061742025732072617465200d0a0000af
:020000040000fa
:10119000174bda6822f4e0621204120c42f0bf62cc
:1011a00042f40032da60bff35f8f62b6114ae02189
:1011b00082f80b134ff40060106082f81b134ff09d
:1011c0000060106082f81f134ff0004111605a6aee
:1011d00042f480225a625a6942f010025a615a6af5
:1011e00042f400325a625a6a42f480325a627047bc
:0811f00000ed00e000e100e069
:020000040000fa
:1011f800134b994201d00020704770b50d46114b32
:1012080000221a80104c114e06440de0104b5d610f
:101218004af204529a8000f0b5fd0028fbd1103440
:1012280010350c4b9c4208d02b46321952f8041f3b
:1012380043f8041ba342f9d1e8e7012070bd00bfc1
:1012480000408000d801002010408000ecbf7fffe4
:0812580000400041104280003b
:020000040000fa
:101260000e4a38b5002313600d4a0e4c13600e4a27
:101270000e4d13600e4a13600e4a13600e4a5362fd
:1012800013610123936000f0f7fe00f0f5feac421d
:1012900000d338bd54f8043b9847f8e7d00100204c
:1012a000300100206c0200002c01002070020000c0
:0c12b0002401002028010020340100204f
:020000040000fa
:1012bc0010b4104a002111705160916011730e4ce2
:1012cc000e4b5c630e489863586940f0813058614e
:1012dc000c48186440f20940208083f84510012125
:1012ec001170032283f84d2040f602721a805df8cb
:1012fc00044b7047a00100209001002000a0004189
:08130c00b0010020000f2000d9
:020000040000fa
:101314002de9ff41134dd1f80080af88adf80c7072
:1013240006462868029002aca8798df80e00002abf
:1013340018bf1446d1e901571a461bb9204600f0dc
:10134400f9fc0246002d02dbaa4228bf2a46cdf84a
:1013540000803b4621463046fff762fe04b0bde8fc
:08136400f08100bf1c20000015
:020000040000fa
:10136c00134b01221a801a46136913f0010ffbd19b
:10137c000f4b48f280121a801a46136913f4004f6f
:10138c00fbd10b4b4ff400721a621a46136913f01f
:10139c00200ffbd1064b00225a621a46136913f038
:1013ac00400ffbd1024b4ff480725a81704700bf43
:0413bc0000240040c9
:020000040000fa
:1013c000353030206d696c6c695365636f6e647382
:1013d0000000000031205365636f6e640000000060
:1013e000000000000000000032205365636f6e644f
:1013f000730000000000000000000000342053656e
:10140000636f6e64730000000000000000000000c5
:020000040000fa
:1014100030b589b015464ff0ff32019202f2031247
:10142000029200b96846cde9030151b14c1e002972
:10143000059408da094b4f221a604ff0ff3009b0cb
:1014400030bd0c46f3e700220270cde906001a46d3
:10145000294601a800f0f4fbf1e700bfd401002009
:020000040000fa
:10146000f8b5104b1d88104b00221a8011f00f0f99
:1014700001d00020f8bdadb20c460646202000f099
:101480007bfc06f110073346a11bca1853f8040b66
:101490001060bb42f9d105f0300000f06dfc012076
:0c14a000e8e700bf00400041d801002038
:020000040000fa
:1014ac0070b50e4b0e4a0021934208d30d480e4dd9
:1014bc004ff6ff76016829b943681bb970bd03f874
:1014cc00011bf1e783684268334000f10c0455f8c6
:1014dc0023302046984704eb8000ebe70000002007
:0c14ec00000000209c0c0000dc1d000033
:020000040000fa
:1014f80030b400f01f05430903f5020303f58073b8
:10150800db016c081a1992f83020d2b210f0010fe2
:1015180019bf22f0f00242ea011122f00f02114332
:10152800c9b21c4484f830102b4493f8402042f090
:0a153800010283f8402030bc704728
:020000040000fa
:1015420010b50278202a034600f10100f9d0a2f179
:1015520009010429f5d92b2a07d02d2a11d10121fd
:101562000133013b00200a2403e00021f8e7604335
:10157200801a13f8012f303a092af8d901b94042ea
:0615820010bd0021ede7a1
:020000040000fa
:10158800d0b110b40446c9b1084421460c4a64429b
:10159800137e13f0010ffbd0536803f00703012bf0
:1015a80014bf0b7834f81130936201318142efd1c6
:1015b80001205df8044b7047002070470120f8e7d0
:0415c80000040043d8
:020000040000fa
:1015cc0010b5054c227832b9044b13b10448aff373
:1015dc0000800123237010bd740100200000000066
:1015ec000000000008b5034b1bb103490348aff3df
:1015fc00008008bd00000000780100200000000001
:020000040000fa
:10160c0082b002ab03e906009df801200b4b0021d0
:10161c0059800ab9019999609df800309b0003f03c
:10162c000c0343ea82332030000200f47c50034365
:10163c009bb2024a538002b0704700bf00a0004129
:020000040000fa
:10164c0070b50d4b1b889eb20c4b00221a8011f00a
:10165c00070f01d0002070bd0c460546102000f08d
:10166c0085fb2b6823606b68636006f0300000f02c
:10167c007dfb0120efe700bf00400041d8010020b6
:020000040000fa
:10168c0010b40d4b00221a80031f00f5fe74081acb
:10169c000430c21853f8041f1160a342f9d1074b50
:1016ac001b8803f030031bb9044b4af203529a8097
:1016bc0001205df8044b7047d80100200040004128
:020000040000fa
:1016cc000c4b588b10f0070000d170475b8b13f05c
:1016dc00070ffad0074b80221a7607225a831b7efb
:1016ec0013f0040ff1d0034b9a6a1a7e12f0040f18
:0816fc00fad1eae70004004303
:020000040000fa
:1017040030b50c4a002312f8134024b902eb43030a
:101714005b78184630bd01680d78a54209bf02eb1d
:10172400430301335b78013114bfdbb201600a2b40
:08173400e9d9eee75a1b0000a1
:020000040000fa
:10173c000a4b0b4a1a604ff622029a814ff4803200
:10174c005a601a46d369002bfcd1044a136843f043
:10175c0002031360d369002bfcd1704700040043d3
:04176c000401104024
:020000040000fa
:1017700030b400eb4004094b03eb84031b899bb29c
:10178000834201d030bc7047044b44002518ad00a3
:101790005951204403eb80035a60f3e70000002016
:020000040000fa
:1017a000a0f50003a3f58043b3f5007f09d8064bed
:1017b00000221a80054b58614ff425429a8001207f
:1017c00070470020704700bfd80100200040004152
:020000040000fa
:1017d0000a4b4ff480421a604ff440421a610022d3
:1017e00083f84e20052183f84f1083f8372001221b
:1017f00083f8d020022283f8b8207047008000418f
:020000040000fa
:101800000a4b1b8813f4004f08d1084a138843f48d
:1018100000431380136913f4004ffbd1034a13698b
:1018200013f0080ffbd1014b98697047002400406a
:020000040000fa
:1018300053b94ab9002908bf00281cbf4ff0ff3137
:101840004ff0ff3000f012bcadf1080c6de904ce92
:10185000fef79efeddf804e0dde9022304b07047e8
:020000040000fa
:10186000020102f1824202f52042116c21f00201d4
:101870001164136c13f0020ffbd1034b03eb001345
:0c18800000221a73704700bfa001002076
:020000040000fa
:10188c0010b4094b00221a80031f00f5fe74081acd
:10189c000430c21853f8041f1160a342f9d101207f
:0c18ac005df8044b704700bfd80100201d
:020000040000fa
:1018b80008b5084b9a8992b207494a604cf2ff3240
:1018c8009a819b890b6823b10b46486889681b6815
:0c18d800984708bd00240040c00100201b
:020000040000fa
:1018e400802910db812901dd83290cd1136807339a
:1018f40023f0070303f108011160d3e90023c0e9d1
:0a1904000023012070470020704707
:020000040000fa
:10190e0008b500f0acfafff75cfffff74cf900f0fa
:10191e00abfbfff7ccfcfff70afffff7f6fafff77a
:08192e001efdfff72efc08bdb1
:020000040000fa
:02193600fee7ca
:020000040000fa
:10193800084a936823f001039360d36813f0010ffa
:10194800fbd1044b5a6822f002025a6001229a60c5
:08195800704700bf0060004170
:020000040000fa
:10196000084a936823f001039360d36813f0010fd2
:10197000fbd1044b5a6842f002025a6001229a607d
:08198000704700bf0060004148
:020000040000fa
:10198800084a936823f001039360d36813f0010faa
:10199800fbd1044b5a6822f004025a6001229a6073
:0819a800704700bf0060004120
:020000040000fa
:1019b000084a936823f001039360d36813f0010f82
:1019c000fbd1044b5a6842f004025a6001229a602b
:0819d000704700bf00600041f8
:020000040000fa
:1019d800000100f1824202f52042136c23f0020359
:1019e8001364136c13f0020ffbd189b2014b195227
:0819f80001207047900100205e
:020000040000fa
:101a000008b5074b4ff400425a61064bd3f8b43087
:101a10002bb1044bd3f8b800d3f8b430984708bdc5
:081a2000002800400000002036
:020000040000fa
:101a2800074b00221a80074b58611b8803f03003cc
:101a38001bb9044b4af203529a800120704700bf39
:081a4800d8010020004000411c
:020000040000fa
:101a500038b505699542044628bf15462a464069af
:101a600000f0e0f8636922692b44551b0022636192
:061a700025611a7038bd6b
:020000040000fa
:021a7600fee789
:020000040000fa
:101a78000301074a1a44107b03f1824303f520430c
:101a880093f84e3003f00303002b18bf0020704773
:041a9800a001002089
:020000040000fa
:101a9c00064a936823f001039360d36813f0010f97
:101aac00fbd1024b01221a62704700bf006000415b
:020000040000fa
:101abc000549088a054b1a8802431a801a8892b283
:101acc000a821888704700bf00400041d8010020ee
:020000040000fa
:101adc0000f01f03400900f5020000f5807003ebd5
:101aec00c01090f8403003f0fe0380f8403070478f
:020000040000fa
:101afc00064b1b6813f0020f07d1044a136843f01e
:101b0c0002031360d369002bfcd17047000400431f
:020000040000fa
:101b1c00064b1b6813f0020f07d0044a136823f01e
:101b2c0002031360d369002bfcd1704700040043ff
:020000040000fa
:101b3c00000100f1824000f5204090f84e00c0b248
:0e1b4c0010f0010f0cbfc0f3400002207047e4
:020000040000fa
:101b5a0068076c094c836a9074a07ac00080688810
:0e1b6a0000846c820081286e696c29002500c1
:020000040000fa
:101b780010b50023934206d113f0030018bf0120cb
:0e1b880000eb930010bdc45ccc540133f2e7b7
:020000040000fa
:021b9600fee768
:020000040000fa
:101b98000001044b03445b88034a02445088181a26
:0c1ba80080b2704790010020b0010020c6
:020000040000fa
:101bb400000100f1824000f5204090f8443003f029
:0c1bc400fc0343f0010380f8443070473c
:020000040000fa
:101bd000000100f1824000f5204090f8443003f00d
:0c1be000fc0343f0020380f8443070471f
:020000040000fa
:101bec00044b00221a80044b58614af201529a802d
:0c1bfc0001207047d8010020004000418b
:020000040000fa
:101c0800054a138823f002031b041b0c1380136975
:0c1c180013f0020ffbd1704700240040c5
:020000040000fa
:101c24005ab110b40a44431e11f8014b03f8014f92
:0c1c34009142f9d15df8044b70477047f5
:020000040000fa
:101c400013b50446019201aafef71efb636813f068
:0c1c5000100f18bf4ff0ff3002b010bda5
:020000040000fa
:101c5c000eb403b503aa52f8041b019200f0c4f9a8
:0a1c6c0002b05df804eb03b070470e
:020000040000fa
:021c7600fee787
:020000040000fa
:101c7800044a936823f001039360d36813f0010fbb
:081c8800fbd170470060004130
:020000040000fa
:101c9000034b00221a80034b4af233529a8070475a
:081ca000d801002000400041c2
:020000040000fa
:101ca800044a138843f400431380136913f4004f64
:081cb800fbd17047002400403d
:020000040000fa
:101cc000044a1388c3f30e031380136913f4004fff
:081cd000fbd170470024004025
:020000040000fa
:101cd800044a138843f002031380136913f0020fb8
:081ce800fbd17047002400400d
:020000040000fa
:101cf000044a536843f480335360d369002bfcd10a
:081d0000704700bf000400431e
:020000040000fa
:101d0800044a536823f480335360d369002bfcd111
:081d1800704700bf0004004306
:020000040000fa
:101d2000044a137e13f0010ffbd080b2014b98627e
:081d3000704700bf00040043ee
:020000040000fa
:101d3800037833b1034613f8012f002afbd1181a90
:081d480070471846704700bf08
:020000040000fa
:101d500010f4807f02d0024b01221a70704700bf3e
:041d6000db01002083
:020000040000fa
:101d6400012800d07047024b01221a70fae700bf25
:041d7400dd0100206d
:020000040000fa
:101d7800034a13889bb223f030031843108070473e
:041d880000400041d6
:020000040000fa
:101d8c00034b588a80f0010000f00100704700bf3f
:041d9c0000400041c2
:020000040000fa
:101da000034b98611a46136913f0080ffbd1704773
:041db00000240040cb
:020000040000fa
:101db400034b18621a46136913f0200ffbd17047c6
:041dc40000240040b7
:020000040000fa
:101dc800034b58621a46136913f0400ffbd1704752
:041dd80000240040a3
:020000040000fa
:101ddc00291e0000791b000059200000592000002a
:041dec00592000007a
:020000040000fa
:101df00032b1c9b20244034603f8011b9342fbd13e
:041e0000704700bf68
:020000040000fa
:101e0400eff3108072b6bff35f8fb0fa80f0400931
:021e1400704715
:020000040000fa
:101e160018b1bff35f8f62b6704772b6bff35f8fbc
:021e2600704703
:020000040000fa
:101e28000a440023914201d10020704701f8013b88
:021e3800f8e7c9
:020000040000fa
:021e3a00fee7c1
:020000040000fa
:101e3c00024b03eb0010416082607047a001002050
:020000040000fa
:101e4c00012303fa00f0014b186170470028004091
:020000040000fa
:101e5c00012303fa00f0014bd860704700280040c2
:020000040000fa
:101e6c00024b40f204521a80704700bf0040004100
:020000040000fa
:101e7c0008b513460a461946fff7cefe012008bde9
:020000040000fa
:101e8c00024b58614af211529a807047004000414f
:020000040000fa
:101e9c00024b58614af212529a807047004000413e
:020000040000fa
:101eac00024b4af216529a80704700bf0040004124
:020000040000fa
:101ebc00024bd86ac0f38000704700bf004000415d
:020000040000fa
:101ecc00024b188ac0f30020704700bf004000414d
:020000040000fa
:101edc00024b4af217529a80704700bf00400041f3
:020000040000fa
:101eec00024b4af232529a80704700bf00400041c8
:020000040000fa
:101efc002030024b43f82010704700bf00240040f4
:020000040000fa
:101f0c002030024b53f82000704700bf00240040e3
:020000040000fa
:101f1c00024b187e00f00100704700bf0004004324
:020000040000fa
:101f2c00024b187ec0f34000704700bf0004004312
:020000040000fa
:0e1f3c0008b5fff7e9f9bde80840fff7adb8ba
:020000040000fa
:0e1f4a00a0f14103192b98bf40f02000704712
:020000040000fa
:0c1f5800014b01221a707047da010020d2
:020000040000fa
:0c1f64000001014b185a7047900100204a
:020000040000fa
:0c1f7000014b00225a80704700a0004185
:020000040000fa
:0c1f7c00014b9868704700bf00a00041b6
:020000040000fa
:0c1f8800014b588a704700bf0040004128
:020000040000fa
:0c1f9400014b9869704700bf00400041fd
:020000040000fa
:0c1fa000014bd86a704700bf00400041b0
:020000040000fa
:0c1fac0003695a400a405a400261704725
:020000040000fa
:0c1fb80080b2014b5881704700240040ab
:020000040000fa
:0c1fc40080b2014b1881704700240040df
:020000040000fa
:0c1fd000014b986ec0b270470024004026
:020000040000fa
:0c1fdc00014b586e704700bf002400400d
:020000040000fa
:0c1fe800014b186099607047c001002098
:020000040000fa
:0c1ff40013460a466ff00041fff708bae0
:020000040000fa
:0a20000008b50020fef7ccff08bd74
:020000040000fa
:08200a00bff35f8f62b670475f
:020000040000fa
:02201200fee7e7
:020000040000fa
:082014000048704700879303a8
:020000040000fa
:07201c00286e756c6c2900b1
:020000040000fa
:062024004ff0ff30704791
:020000040000fa
:06202a004ff480607047d6
:020000040000fa
:062030004ff0ff30704785
:020000040000fa
:062036004ff0ff3070477f
:020000040000fa
:04203c00006a70477f
:020000040000fa
:04204000006970477c
:020000040000fa
:0420440081617047ff
:020000040000fa
:04204800416170473b
:020000040000fa
:04204c00c1617047b7
:020000040000fa
:042050004160704734
:020000040000fa
:0420540081607047f0
:020000040000fa
:0420580000207047ad
:020000040000fa
:04205c0000207047a9
:020000040000fa
:0420600000207047a5
:020000040000fa
:0420640000207047a1
:020000040000fa
:04206800fff76fbf50
:020000040000fa
:04206c00704700bffa
:020000040000fa
:02207000fee789
:020000040000fa
:022072007047b5
:020000040000fa
:02207400fee785
:020000040000fa
:022076007047b1
:020000040000fa
:022078007047af
:020000040000fa
:0200000400807a
:044000003912003c35
:020000040000fa
:0200000400807a
:044004008000a82a66
:020000040000fa
:0200000400807a
:04400800ffffffffb8
:00000001FF
