:020000040000fa
:10000000f0ff0320f5090000d71100002b120000bb
:10001000ff1200002f1300007b13000000000000ff
:100020000000000000000000000000003f11000080
:1000300073120000000000003f1100003f1100009b
:100040003f1100003f1100003f1100003f11000070
:100050003f1100003f1100003f1100003f11000060
:100060003f1100003f1100003f110000e9100000a7
:100070003f1100003f1100003f1100003f11000040
:100080003f1100003f1100003f1100003f11000030
:100090003f1100003f1100003f1100003f11000020
:1000a0003f1100003f1100003f110000411100000e
:1000b0003f1100003f1100003f11000055130000e8
:1000c0003f1100003f1100003f1100003f110000f0
:1000d0003f1100003f1100003f1100003f110000e0
:1000e0003f1100003f110000000000000000000070
:1000f000000000003f1100003f1100003f11000010
:100100003f1100003f1100003f1100003f110000af
:100110003f1100003f1100003f1100003f1100009f
:100120003f1100003f1100003f1100003f1100008f
:100130003f1100003f1100003f1100003f1100007f
:100140003f1100003f1100003f1100003f1100006f
:100150003f1100003f1100000000000000000000ff
:10016000000000000000000000000000000000008f
:1001700000000000000000003f1100003f110000df
:100180003f1100003f1100003f1100003f1100002f
:10019000000000003f1100003f1100003f1100006f
:1001a0003f1100003f1100003f1100003f1100000f
:1001b0003f1100003f1100003f1100003f110000ff
:1001c0003f1100003f1100003f1100003f110000ef
:1001d0003f1100003f1100003f1100003f110000df
:1001e0003f1100003f1100003f1100003f110000cf
:1001f0003f1100003f1100003f1100003f110000bf
:100200003f11000000000000000000003f1100004e
:100210003f1100003f1100003f1100003f1100009e
:100220003f1100003f1100003f1100003f1100008e
:100230003f1100003f1100003f1100003f1100007e
:100240003f1100003f1100003f1100003f1100006e
:100250003f1100003f1100003f1100003f1100005e
:020000040000fa
:10026000f8b500bff8bc08bc9e467047c50f00003b
:10027000f8b500bff8bc08bc9e467047a10f00004f
:020000040000fa
:100280002de9f041aeb006461546059100270599c7
:100290000b78002b00f0fa8000244ff0ff33cde9fb
:1002a00009430eab0c9380230b940d930b5d0bb1a4
:1002b000252b26d134b12246304600f069ff059b3c
:1002c00023440593059b1a78252a40f0d78003f133
:1002d0000108cdf81480059803782b2b1ad025d867
:1002e000202b1bd0232b1dd02a2b27d000f034fe2f
:1002f0000b90059b1a78303a092a2ed801330593c2
:10030000f7e70134d2e7099b43f001030130099379
:100310000590e0e7099b43f00403f7e7099b43f0ee
:100320000803f3e7099b43f01003efe72d2bead016
:10033000302bd9d1099b43f00203e7e72b681a1d44
:100340001b682a600130002b05900b9305da099a8f
:100350005b4282f0010209920b93099bda0744bfca
:1003600023f002030993059b1a782e2a0dd100224f
:10037000581c0a9205905a782a2a25d102330593ef
:100380002b681a1d1b682a600a9305a800f028fe36
:10039000059b0390187800f0c3ff6928039979d072
:1003a00032dc632800f0cb8019dc252800f0d980ee
:1003b000612853d000234ff0ff32cdf81480099309
:1003c0000b930a920093d4e000f0c6fd0a90059bbf
:1003d0001a78303a092ad8d801330593f7e7642808
:1003e00058d06728e6dc2a4606a800f093fe0028cd
:1003f00000f0a180059b5a1c05921b7806aa09a94a
:10040000304600f0b8ff38e0702873d015dc6e2855
:1004100000f08c806f28cdd12b46002206a800f07a
:100420004ffa002800f08780059b06aa013309a92e
:100430003046059300f09dff1fe075283ad07828dc
:1004400048d07328b6d1802975d1059b2a6801331d
:100450000593131d2b60126800237de02a4606a831
:1004600000f058fe002866d0059b5a1c05921b78a8
:1004700006aa09a9304600f07eff04443c44a74286
:100480007add3e4b4f221a604ff0ff3738462eb0d0
:10049000bde8f0812b46012206a800f011fa0028e1
:1004a00049d0059b06aa013309a93046059300f0ff
:1004b00060ffe2e72b46002206a800f001fa0028c0
:1004c00039d0059b06aa013309a93046059300f0ef
:1004d00050ffd2e72b46002206a800f0f1f950b3f6
:1004e000059b5a1c05921b7806aa09a9304600f004
:1004f00042ffc2e72b460022f02106a800f0e0f9f7
:10050000c8b1059b01330593dde9062313430bd1e5
:100510001b4800f097fe099b009319490b9b02466c
:10052000304600f0edfaa8e77823dde72b463a19cc
:1005300006a800f067fb059b013305939ee7802921
:10054000f9d1059b013305932b681a1d1b682a609e
:100550008df8183006aa012309a9304600f056fc90
:100560008be78029e7d1059b01330593099b009315
:100570000b9b04490122d3e7274688e6d4010020db
:080580005e130000641300008b
:020000040000fa
:100588002de980489bb06422002101a800f0a0fe5c
:10059800002000f0e5fd00224449104600f0acfec2
:1005a800002243490f2000f06bfd0021414800f074
:1005b800bbfe414c414d0fcd0fc40fcd0fc495e884
:1005c800070003c4227000f02dfe3d4c3d4fdff8bc
:1005d800e8800026dff8fcb03b4ddff8fc9044e0f3
:1005e80026703e704ff48043caf81c30404600f035
:1005f80025fe03465a464146304600f0e9f82b7876
:1006080033b92378002bfad03b78002bf7d0e7e7f3
:100618002e7099f800305bbb012389f800304ff445
:10062800806000f02dfe304600f020fedff8aca020
:1006380099f8002002eb82020aeb8202234901a802
:1006480000f0e2fd01a800f0f9fd03465a4601a9b1
:10065800304600f0bdf899f8002002eb82020aeb60
:1006680082021b49404600f0cffddff874a0c8e7be
:10067800012b0ad0022b10d0032bd4d189f80060ab
:100688004ff4007000f0fcfdcde7022389f800303c
:100698004ff4006000f0f4fdc5e7032389f800304b
:1006a8004ff4805000f0ecfdbde700bfb112000030
:1006b8003d1300009d120000c0000020800c0000c7
:1006c800d9010020db010020d8010020ac0c00007b
:1006d800d40c000028040043da010020b80e000002
:0406e800008000414d
:020000040000fa
:1006ec00334b00221a7403f50063324a9a621a469d
:1006fc00536813f0100ffbd12f4b4222c3f8842008
:10070c001a4600bfd2f8843013f0400ffad02b4bae
:10071c0000229a6377225a631a46d36b13f0040fa4
:10072c00fbd1264b022283f830201a46d36b13f0f0
:10073c00020ffbd1214a136c03f00303032bfad1f4
:10074c001f4b01225a711a46d37813f0010ffbd0bc
:10075c00194b1c4a1a621a46536813f0040ffbd14a
:10076c00154b194a5a621a46536813f0080ffbd1fd
:10077c00114b4122c3f890201a4600bfd2f890309a
:10078c0013f0400ffad00c4b4122c3f80c211a463f
:10079c00d2f80c3113f0400ffad0094b6ff07f42b6
:1007ac001a6140f2ff725a6102221a62704700bf4e
:1007bc000014004006013000001c004000100040f6
:0c07cc00000800400701010007010200c6
:020000040000fa
:1007d80070b40401354d25442d7b04f1824404f5a1
:1007e800204494f84e4014f0030f02d1edb2002dce
:1007f80055d1040104f1824505f52045032685f805
:100808004e602a4d254401262e73294d2c5b14f485
:10081800806f19bfc91805eb0014254c04eb0014b0
:1008280061600101224c615a11f4006f27d01a440b
:1008380004eb00118a601e4902018c18895a9bb288
:10084800c1f301210b419bb2638002f1824303f59e
:1008580020431a6c42f002021a641a6c12f4fe4f1a
:100868001fd193f8463013f0400f1dd111490c6980
:10087800012202fa00f323430b61104612e00d49ee
:10088800498811f4404f04d1094901eb00118a60ed
:10089800d1e71168064a02eb00129160cbe700200d
:1008a80000e0012070bc70470120fbe7a001002098
:0808b8009001002000a00041a6
:020000040000fa
:1008c000882910b536d012dc812943d003dc802979
:1008d00040d0002010bd82290ed08429f9d119689a
:1008e00002b30a1d1a60b1f90020d3171ee0a02937
:1008f0002bd00bdc9029ecd11968073121f00701ce
:1009000001f108021a60d1e900230fe0c02901d0eb
:10091000f029ded11a68111d1960136803600023e5
:10092000436005e00a1d1a600a880023c0e900231d
:100930000120cfe7196822b10a1d1a6091f9002041
:10094000d3e70a1d1a600a78efe71a68111d1960cb
:100950001268cae719681ab10a1d1a600a68c4e762
:0c0960000c1d1c600b68c0e90032e1e7d0
:020000040000fa
:10096c001f4a137843f001031370536813f0010fff
:10097c00fbd11b490b7843f010030b700022ca61aa
:10098c004ff010430b624ff400430b634a630b614f
:10099c00144b10221a819a821a849a851a87a3f80a
:1009ac004420a3f85020a3f85c20a3f86820a3f8f7
:1009bc007420a3f88020a3f88c20a3f89820a3f827
:1009cc00a420a3f8b0200f22a3f8bc200b7843f08e
:1009dc0002030b700a46536813f0020ffbd17047e9
:0809ec0000280040000000207b
:020000040000fa
:1009f40008b5194b9847194b9847eff3108172b615
:100a0400174ad2f8883043f47003c2f88830bff331
:100a14004f8fbff36f8f01b962b6124a936823f008
:100a2400010393601346da6812f0010ffbd10d4bfa
:100a340024225a6001229a6000f0eefa0a4b23f055
:100a44007f03074a9360094b9847094b9847094b22
:100a54009847fff797fdfee77d1300007d13000024
:100a640000ed00e00060004100000000590d0000ae
:080a74007d1300007d1300005a
:020000040000fa
:100a7c0010b582b000230193030103f1824303f507
:100a8c00204393f84e30dbb20193019b13f0020f1d
:100a9c000dd0010101f1824202f52042022382f8bd
:100aac004e30134b0b4400221a73012400e0022435
:100abc00019b13f0010f0cd0010101f1824202f5f0
:100acc002042012382f84e30094b0b4400221a734a
:100adc000224074b03eb00135b6833b1044a02ebaf
:100aec00001399685b682046984702b010bd00bfa0
:040afc00a001002035
:020000040000fa
:100b00002de9ff471d460c9b13f0010906468a4656
:100b1000144601d195420bd822465146304600f08a
:100b200037fba54204d82546284604b0bde8f08727
:100b30002f1b102f3a464ff0200128bf1022684685
:100b4000b84600f0c9fb00bfb8f10f0f11d83b0940
:100b50006ff00f0202fb03726946304600f018fb8b
:100b6000b9f1000fe0d122465146304600f010fbab
:100b7000dae710226946304600f00afba8f11008b7
:040b8000e2e700bfe9
:020000040000fa
:100b8400740100204c000000000000000000002060
:100b9400c000000000000000c00100200c000000a4
:100ba40000000000d8010020030000000000000045
:100bb400c00000206400000000000000db010020f1
:100bc400010000000100000001000000cc01002031
:100bd4000400000000000000240100205000000078
:100be40000000000d0010020080000000000000008
:100bf40000000000000000006666666666666666c1
:020000040000fa
:100c0400842910b523d00cdc812903d0822913d088
:100c140080290bd119680c1d1c600b6803601a60d5
:100c240013e0902921d003dc882917d0002010bdbf
:100c3400a029efd0c029ece719680c1d1c600b68d3
:100c44000360d1171046c3e900010120efe71968da
:100c54000c1d1c600b6803601a80f6e719680c1df4
:100c64001c600b6803601a70efe719680c1d1c60a8
:0c0c740009680160d317c1e90023e6e71e
:020000040000fa
:100c8000546f67676c696e67204c4544206174201f
:100c9000353030206d696c6c697365636f6e647399
:100ca0002072617465200d0a000000004c4544204c
:100cb000546f67676c696e67207261746520697331
:100cc000206368616e67656420746f2025730d0a68
:100cd00000000000546f67676c696e67204c4544e4
:100ce0002061742025732072617465200d0a000054
:020000040000fa
:100cf000174bda6822f4e0621204120c42f0bf6271
:100d000042f40032da60bff35f8f62b6114ae0212d
:100d100082f80b134ff40060106082f81b134ff041
:100d20000060106082f81f134ff0004111605a6a92
:100d300042f480225a625a6942f010025a615a6a99
:100d400042f400325a625a6a42f480325a62704760
:080d500000ed00e000e100e00d
:020000040000fa
:100d58000e4a38b5002313600d4a0e4c13600e4a34
:100d68000e4d13600e4a13600e4a13600e4a53620a
:100d780013610123936000f0fffa00f0fdfaac4222
:100d880000d338bd54f8043b9847f8e7d001002059
:100d9800300100206c0200002c01002070020000cd
:0c0da8002401002028010020340100205c
:020000040000fa
:100db40010b4104a002111705160916011730e4cef
:100dc4000e4b5c630e489863586940f0813058615b
:100dd4000c48186440f20940208083f84510012132
:100de4001170032283f84d2040f602721a805df8d8
:100df400044b7047a00100209001002000a0004196
:080e0400b0010020000f2000e6
:020000040000fa
:100e0c002de9ff41134dd1f80080af88adf80c707f
:100e1c0006462868029002aca8798df80e00002acc
:100e2c0018bf1446d1e901571a461bb9204600f0e9
:100e3c0003fa0246002d02dbaa4228bf2a46cdf84f
:100e4c0000803b4621463046fff754fe04b0bde817
:080e5c00f08100bf66130000e5
:020000040000fa
:100e6400134b01221a801a46136913f0010ffbd1a8
:100e74000f4b48f280121a801a46136913f4004f7c
:100e8400fbd10b4b4ff400721a621a46136913f02c
:100e9400200ffbd1064b00225a621a46136913f045
:100ea400400ffbd1024b4ff480725a81704700bf50
:040eb40000240040d6
:020000040000fa
:100eb800353030206d696c6c695365636f6e64738f
:100ec8000000000031205365636f6e64000000006d
:100ed800000000000000000032205365636f6e645c
:100ee800730000000000000000000000342053657b
:100ef800636f6e64730000000000000000000000d3
:020000040000fa
:100f080030b589b015464ff0ff32019202f2031254
:100f1800029200b96846cde9030151b14c1e00297f
:100f2800059408da094b4f221a604ff0ff3009b0d8
:100f380030bd0c46f3e700220270cde906001a46e0
:100f4800294601a800f052f9f1e700bfd4010020ba
:020000040000fa
:100f580010b50278202a034600f10100f9d0a2f169
:100f680009010429f5d92b2a07d02d2a11d10121ed
:100f78000133013b00200a2403e00021f8e7604325
:100f8800801a13f8012f303a092af8d901b94042da
:060f980010bd0021ede791
:020000040000fa
:020f9e0070479a
:020000040000fa
:100fa00010b5054c227832b9044b13b10448aff3a5
:100fb00000800123237010bd740100200000000098
:100fc0000000000008b5034b1bb103490348aff311
:100fd000008008bd00000000780100200000000033
:020000040000fa
:100fe00030b50d4a002300bf12f8134024b902ebbc
:100ff00043035b78184630bd01680d78a54209bff0
:1010000002eb430301335b78013114bfdbb20160b3
:0c1010000a2be9d9eee700bf5c120000db
:020000040000fa
:10101c0070b50b480b4d4ff6ff76016821b943684c
:10102c0013b900f0a6f970bd83684268334000f133
:10103c000c0455f823302046984704eb8000ece76d
:08104c00840b0000c412000037
:020000040000fa
:101054000a4b0b4a1a604ff622029a814ff48032ef
:101064005a601a46d369002bfcd1044a136843f032
:1010740002031360d369002bfcd1704700040043c2
:041084000401104013
:020000040000fa
:1010880030b400eb4004094b03eb84031b899bb28b
:10109800834201d030bc7047044b44002518ad0092
:1010a8005951204403eb80035a60f3e70000002005
:020000040000fa
:1010b8000a4b4ff480421a604ff440421a610022f2
:1010c80083f84e20052183f84f1083f8372001223a
:1010d80083f8d020022283f8b820704700800041ae
:020000040000fa
:1010e80008b5084b9a8992b207494a604cf2ff3218
:1010f8009a819b890b6823b10b46486889681b68ed
:0c110800984708bd00240040c0010020f2
:020000040000fa
:10111400802910db812901dd83290cd11368073371
:1011240023f0070303f108011160d3e90023c0e9a8
:0a11340000230120704700207047df
:020000040000fa
:02113e00fee7ca
:020000040000fa
:1011400008b5074b4ff400425a61064bd3f8b43050
:101150002bb1044bd3f8b800d3f8b430984708bd8e
:081160000028004000000020ff
:020000040000fa
:1011680008b500f0d1f8fff7a3fffff7bbfafff7c8
:1011780012fffff71bfefff769fffff7f3fbfff70f
:081188006dfefff7b1fd08bd8b
:020000040000fa
:1011900038b50569954228bf154604465db12a4613
:1011a000406900f019f8636922692b44551b00223d
:0811b000636125611a7038bd6e
:020000040000fa
:1011b80010b50023934206d113f0030018bf012095
:0e11c80000eb930010bdc45ccc540133f2e781
:020000040000fa
:0211d600fee732
:020000040000fa
:1011d8005ab110b40a44431e11f8014b03f8014fe9
:0c11e8009142f9d15df8044b704770474c
:020000040000fa
:1011f40013b50446019201aafff740f8636813f09f
:0c120400100f18bf4ff0ff3002b010bdfb
:020000040000fa
:101210000eb403b503aa52f8041b019200f094f82f
:0a12200002b05df804eb03b0704764
:020000040000fa
:02122a00fee7dd
:020000040000fa
:10122c00044a138843f002031380136913f0020f6e
:08123c00fbd1704700240040c3
:020000040000fa
:1012440003783bb1034600bf13f8012f002afbd1fa
:08125400181a70471846704794
:020000040000fa
:10125c0068076c094c836a9074a07ac00080688817
:06126c0000846c82008189
:020000040000fa
:02127200fee795
:020000040000fa
:10127400034b98611a46136913f0080ffbd17047aa
:041284000024004002
:020000040000fa
:10128800034b18621a46136913f0200ffbd17047fd
:0412980000240040ee
:020000040000fa
:10129c0010f4807f02d0024b01221a70704700bffd
:0412ac00d901002044
:020000040000fa
:1012b000012800d07047024b01221a70fae700bfe4
:0412c000db0100202e
:020000040000fa
:1012c400ed120000b91100006f1300006f1300004d
:0412d4006f13000094
:020000040000fa
:1012d80032b1c9b20244034603f8011b9342fbd161
:0412e800704700bf8c
:020000040000fa
:1012ec000a440023914201d10020704701f8013bd0
:0212fc00f8e711
:020000040000fa
:0212fe00fee709
:020000040000fa
:10130000024b03eb0010416082607047a001002097
:020000040000fa
:10131000024b40f204521a80704700bf0040004167
:020000040000fa
:0e132000a0f14103192b98bf40f02000704748
:020000040000fa
:02132e00fee7d8
:020000040000fa
:0c133000014b186099607047c00100205c
:020000040000fa
:0c133c00014b01221a707047d8010020fc
:020000040000fa
:0c13480013460a466ff00041fff7dabdc3
:020000040000fa
:0a13540008b50020fff790fb08bd6c
:020000040000fa
:08135e00286e696c29002500ce
:020000040000fa
:07136600286e756c6c290074
:020000040000fa
:04136e0000207047a4
:020000040000fa
:0413720000207047a0
:020000040000fa
:04137600002070479c
:020000040000fa
:02137a00fee78c
:020000040000fa
:02137c007047b8
:020000040000fa
:02137e007047b6
:020000040000fa
:021380007047b4
:020000040000fa
:0200000400807a
:044000003912003c35
:020000040000fa
:0200000400807a
:044004008000a82a66
:020000040000fa
:0200000400807a
:04400800ffffffffb8
:00000001FF
